:020000040000FA
:020000000428D2
:08000800FF3083120313A10075
:10001000FF30A200DD201F30F920FF30F5208312D1
:100020000313A501A601A701A8010030E320831254
:1000300003132317E22083120313A313E120831277
:100040000313061C2928061C262823280130A70094
:100050007228861C3128861C2E282B280230A700E7
:100060007228061D3928061D362833280330A700BC
:100070007228861D4128861D3E283B280430A70093
:100080007228061E4928061E462843280530A70068
:100090007228861E5128861E4E284B280630A7003F
:1000A0007228061F5928061F562853280730A70014
:1000B0007228861F6128861F5E285B280830A700EB
:1000C0007228051E6928061F662863280930A700C4
:1000D0007228851D7128861F6E286B280A30A7009C
:1000E0007228A701A808031D7E282708033C031DCA
:1000F0007E28A70803197E28A80AB6282808013CEC
:10010000031D8B282708043C031D8B28A70803190F
:100110008B28A80AB6282808023C031D982827081F
:10012000053C031D9828A70803199828A80AB62893
:10013000A7080319B6282808033C031DB62827087A
:10014000063C031DB328A317E120831203132313D6
:10015000E2200130B820831203132317E220831218
:100160000313A313E12083120313A8011F28B72848
:1001700083120313A90083120313290883120313A4
:10018000AA00643083120313AB003230C7288312F5
:100190000313AC00FF3083120313AD002B08AF0034
:1001A0002A08AE0017302D070318D328AE0BD2282B
:1001B000AF0BD028AC0BCE280800072107309F00DA
:1001C0000800EE28EE2883120313A400E728831208
:1001D00003132408831203138600080083120313F9
:1001E0002308831203138500080083120313A2005F
:1001F000FD2883120313A10002298312031322088E
:1002000066000800831203132108650008008312AA
:0402100003130800CC
:02400E00103F61
:00000001FF
